{
  "abi": [
    {
      "inputs": [
        {
          "internalType": "string",
          "name": "name_",
          "type": "string"
        },
        {
          "internalType": "string",
          "name": "symbol_",
          "type": "string"
        },
        {
          "internalType": "contract IERC20Plugins",
          "name": "token_",
          "type": "address"
        }
      ],
      "stateMutability": "nonpayable",
      "type": "constructor"
    },
    {
      "inputs": [],
      "name": "AccessDenied",
      "type": "error"
    },
    {
      "inputs": [],
      "name": "ApproveDisabled",
      "type": "error"
    },
    {
      "inputs": [],
      "name": "TransferDisabled",
      "type": "error"
    },
    {
      "anonymous": false,
      "inputs": [
        {
          "indexed": true,
          "internalType": "address",
          "name": "owner",
          "type": "address"
        },
        {
          "indexed": true,
          "internalType": "address",
          "name": "spender",
          "type": "address"
        },
        {
          "indexed": false,
          "internalType": "uint256",
          "name": "value",
          "type": "uint256"
        }
      ],
      "name": "Approval",
      "type": "event"
    },
    {
      "anonymous": false,
      "inputs": [
        {
          "indexed": true,
          "internalType": "address",
          "name": "from",
          "type": "address"
        },
        {
          "indexed": true,
          "internalType": "address",
          "name": "to",
          "type": "address"
        },
        {
          "indexed": false,
          "internalType": "uint256",
          "name": "value",
          "type": "uint256"
        }
      ],
      "name": "Transfer",
      "type": "event"
    },
    {
      "anonymous": false,
      "inputs": [
        {
          "indexed": false,
          "internalType": "address",
          "name": "account",
          "type": "address"
        },
        {
          "indexed": false,
          "internalType": "address",
          "name": "vouchee",
          "type": "address"
        },
        {
          "indexed": false,
          "internalType": "uint256",
          "name": "amount",
          "type": "uint256"
        }
      ],
      "name": "Vouched",
      "type": "event"
    },
    {
      "inputs": [
        {
          "internalType": "address",
          "name": "owner",
          "type": "address"
        },
        {
          "internalType": "address",
          "name": "spender",
          "type": "address"
        }
      ],
      "name": "allowance",
      "outputs": [
        {
          "internalType": "uint256",
          "name": "",
          "type": "uint256"
        }
      ],
      "stateMutability": "view",
      "type": "function"
    },
    {
      "inputs": [
        {
          "internalType": "address",
          "name": "",
          "type": "address"
        },
        {
          "internalType": "uint256",
          "name": "",
          "type": "uint256"
        }
      ],
      "name": "approve",
      "outputs": [
        {
          "internalType": "bool",
          "name": "",
          "type": "bool"
        }
      ],
      "stateMutability": "pure",
      "type": "function"
    },
    {
      "inputs": [
        {
          "internalType": "address",
          "name": "account",
          "type": "address"
        }
      ],
      "name": "balanceOf",
      "outputs": [
        {
          "internalType": "uint256",
          "name": "",
          "type": "uint256"
        }
      ],
      "stateMutability": "view",
      "type": "function"
    },
    {
      "inputs": [],
      "name": "decimals",
      "outputs": [
        {
          "internalType": "uint8",
          "name": "",
          "type": "uint8"
        }
      ],
      "stateMutability": "view",
      "type": "function"
    },
    {
      "inputs": [
        {
          "internalType": "address",
          "name": "spender",
          "type": "address"
        },
        {
          "internalType": "uint256",
          "name": "subtractedValue",
          "type": "uint256"
        }
      ],
      "name": "decreaseAllowance",
      "outputs": [
        {
          "internalType": "bool",
          "name": "",
          "type": "bool"
        }
      ],
      "stateMutability": "nonpayable",
      "type": "function"
    },
    {
      "inputs": [
        {
          "internalType": "address",
          "name": "spender",
          "type": "address"
        },
        {
          "internalType": "uint256",
          "name": "addedValue",
          "type": "uint256"
        }
      ],
      "name": "increaseAllowance",
      "outputs": [
        {
          "internalType": "bool",
          "name": "",
          "type": "bool"
        }
      ],
      "stateMutability": "nonpayable",
      "type": "function"
    },
    {
      "inputs": [],
      "name": "name",
      "outputs": [
        {
          "internalType": "string",
          "name": "",
          "type": "string"
        }
      ],
      "stateMutability": "view",
      "type": "function"
    },
    {
      "inputs": [],
      "name": "symbol",
      "outputs": [
        {
          "internalType": "string",
          "name": "",
          "type": "string"
        }
      ],
      "stateMutability": "view",
      "type": "function"
    },
    {
      "inputs": [],
      "name": "token",
      "outputs": [
        {
          "internalType": "contract IERC20Plugins",
          "name": "",
          "type": "address"
        }
      ],
      "stateMutability": "view",
      "type": "function"
    },
    {
      "inputs": [],
      "name": "totalSupply",
      "outputs": [
        {
          "internalType": "uint256",
          "name": "",
          "type": "uint256"
        }
      ],
      "stateMutability": "view",
      "type": "function"
    },
    {
      "inputs": [
        {
          "internalType": "address",
          "name": "",
          "type": "address"
        },
        {
          "internalType": "uint256",
          "name": "",
          "type": "uint256"
        }
      ],
      "name": "transfer",
      "outputs": [
        {
          "internalType": "bool",
          "name": "",
          "type": "bool"
        }
      ],
      "stateMutability": "pure",
      "type": "function"
    },
    {
      "inputs": [
        {
          "internalType": "address",
          "name": "",
          "type": "address"
        },
        {
          "internalType": "address",
          "name": "",
          "type": "address"
        },
        {
          "internalType": "uint256",
          "name": "",
          "type": "uint256"
        }
      ],
      "name": "transferFrom",
      "outputs": [
        {
          "internalType": "bool",
          "name": "",
          "type": "bool"
        }
      ],
      "stateMutability": "pure",
      "type": "function"
    },
    {
      "inputs": [
        {
          "internalType": "address",
          "name": "from",
          "type": "address"
        },
        {
          "internalType": "address",
          "name": "to",
          "type": "address"
        },
        {
          "internalType": "uint256",
          "name": "amount",
          "type": "uint256"
        }
      ],
      "name": "updateBalances",
      "outputs": [],
      "stateMutability": "nonpayable",
      "type": "function"
    },
    {
      "inputs": [
        {
          "internalType": "address",
          "name": "vouchee",
          "type": "address"
        },
        {
          "internalType": "uint256",
          "name": "amount",
          "type": "uint256"
        }
      ],
      "name": "vouch",
      "outputs": [],
      "stateMutability": "nonpayable",
      "type": "function"
    },
    {
      "inputs": [
        {
          "internalType": "address",
          "name": "fromVouchee",
          "type": "address"
        },
        {
          "internalType": "address",
          "name": "toVouchee",
          "type": "address"
        },
        {
          "internalType": "uint256",
          "name": "amount",
          "type": "uint256"
        }
      ],
      "name": "vouchFrom",
      "outputs": [],
      "stateMutability": "nonpayable",
      "type": "function"
    },
    {
      "inputs": [
        {
          "internalType": "address",
          "name": "",
          "type": "address"
        },
        {
          "internalType": "address",
          "name": "",
          "type": "address"
        }
      ],
      "name": "vouched",
      "outputs": [
        {
          "internalType": "uint256",
          "name": "",
          "type": "uint256"
        }
      ],
      "stateMutability": "view",
      "type": "function"
    }
  ],
  "bytecode": {
    "object": "0x60a06040523480156200001157600080fd5b50604051620016bf380380620016bf833981016040819052620000349162000131565b6001600160a01b038116608052828260036200005183826200024d565b5060046200006082826200024d565b50505050505062000319565b634e487b7160e01b600052604160045260246000fd5b600082601f8301126200009457600080fd5b81516001600160401b0380821115620000b157620000b16200006c565b604051601f8301601f19908116603f01168101908282118183101715620000dc57620000dc6200006c565b81604052838152602092508683858801011115620000f957600080fd5b600091505b838210156200011d5785820183015181830184015290820190620000fe565b600093810190920192909252949350505050565b6000806000606084860312156200014757600080fd5b83516001600160401b03808211156200015f57600080fd5b6200016d8783880162000082565b945060208601519150808211156200018457600080fd5b50620001938682870162000082565b604086015190935090506001600160a01b0381168114620001b357600080fd5b809150509250925092565b600181811c90821680620001d357607f821691505b602082108103620001f457634e487b7160e01b600052602260045260246000fd5b50919050565b601f8211156200024857600081815260208120601f850160051c81016020861015620002235750805b601f850160051c820191505b8181101562000244578281556001016200022f565b5050505b505050565b81516001600160401b038111156200026957620002696200006c565b62000281816200027a8454620001be565b84620001fa565b602080601f831160018114620002b95760008415620002a05750858301515b600019600386901b1c1916600185901b17855562000244565b600085815260208120601f198616915b82811015620002ea57888601518255948401946001909101908401620002c9565b5085821015620003095787850151600019600388901b60f8161c191681555b5050505050600190811b01905550565b60805161136e6200035160003960008181610261015281816103c301528181610461015281816106ce015261083d015261136e6000f3fe608060405234801561001057600080fd5b50600436106101005760003560e01c80633d4d83d211610097578063a457c2d711610066578063a457c2d714610228578063a9059cbb1461023b578063dd62ed3e14610249578063fc0c546a1461025c57600080fd5b80633d4d83d2146101d157806370a08231146101e45780637a1f1aa91461020d57806395d89b411461022057600080fd5b806318160ddd116100d357806318160ddd1461019457806323b872dd1461019c578063313ce567146101af57806339509351146101be57600080fd5b806306fdde0314610105578063095ea7b3146101235780630f6c55721461014657806314ea0a871461015b575b600080fd5b61010d61029b565b60405161011a919061110c565b60405180910390f35b610136610131366004611142565b61032d565b604051901515815260200161011a565b610159610154366004611142565b610348565b005b61018661016936600461116c565b600560209081526000928352604080842090915290825290205481565b60405190815260200161011a565b600254610186565b6101366101aa36600461119f565b610592565b6040516012815260200161011a565b6101366101cc366004611142565b6105ad565b6101596101df36600461119f565b6105db565b6101866101f23660046111db565b6001600160a01b031660009081526020819052604090205490565b61015961021b36600461119f565b610832565b61010d61088b565b610136610236366004611142565b61089a565b6101366101aa366004611142565b61018661025736600461116c565b610920565b6102837f000000000000000000000000000000000000000000000000000000000000000081565b6040516001600160a01b03909116815260200161011a565b6060600380546102aa906111f6565b80601f01602080910402602001604051908101604052809291908181526020018280546102d6906111f6565b80156103235780601f106102f857610100808354040283529160200191610323565b820191906000526020600020905b81548152906001019060200180831161030657829003601f168201915b5050505050905090565b6000604051633ad830b160e21b815260040160405180910390fd5b336001600160a01b038316036103a55760405162461bcd60e51b815260206004820152601a60248201527f43616e6e6f7420766f75636820666f7220796f757273656c662100000000000060448201526064015b60405180910390fd5b60405163c125563560e01b81523060048201523360248201526000907f00000000000000000000000000000000000000000000000000000000000000006001600160a01b03169063c125563590604401602060405180830381865afa158015610412573d6000803e3d6000fd5b505050506040513d601f19601f820116820180604052508101906104369190611230565b60405163c125563560e01b81523060048201526001600160a01b0385811660248301529192506000917f0000000000000000000000000000000000000000000000000000000000000000169063c125563590604401602060405180830381865afa1580156104a8573d6000803e3d6000fd5b505050506040513d601f19601f820116820180604052508101906104cc9190611230565b90506103e86104db848361125f565b11156104f95760405162461bcd60e51b815260040161039c90611272565b82821061050b5761050b33858561094b565b3360009081526005602090815260408083206001600160a01b03881684529091528120805485929061053e90849061125f565b9091555050604080513381526001600160a01b03861660208201529081018490527f49517064a7e568cc243d6d42d1e1388d887dea9ef158bc6f15e34da4055bde839060600160405180910390a150505050565b600060405163a24e573d60e01b815260040160405180910390fd5b6000336105cf8185856105c08383610920565b6105ca919061125f565b610986565b60019150505b92915050565b3360009081526005602090815260408083206001600160a01b038716845290915290205481111561064e5760405162461bcd60e51b815260206004820152601a60248201527f4e6f7420656e6f75676820766f756368696e6720706f77657221000000000000604482015260640161039c565b336001600160a01b038316036106a65760405162461bcd60e51b815260206004820152601a60248201527f43616e6e6f7420766f75636820666f7220796f757273656c6621000000000000604482015260640161039c565b60405163c125563560e01b81523060048201526001600160a01b0383811660248301526000917f00000000000000000000000000000000000000000000000000000000000000009091169063c125563590604401602060405180830381865afa158015610717573d6000803e3d6000fd5b505050506040513d601f19601f8201168201806040525081019061073b9190611230565b90506103e861074a838361125f565b11156107685760405162461bcd60e51b815260040161039c90611272565b3360009081526005602090815260408083206001600160a01b03881684529091528120805484929061079b9084906112b9565b90915550503360009081526005602090815260408083206001600160a01b0387168452909152812080548492906107d390849061125f565b9091555050604080513381526001600160a01b03851660208201529081018390527f49517064a7e568cc243d6d42d1e1388d887dea9ef158bc6f15e34da4055bde839060600160405180910390a161082c84848461094b565b50505050565b336001600160a01b037f0000000000000000000000000000000000000000000000000000000000000000161461087b57604051634ca8886760e01b815260040160405180910390fd5b61088683838361094b565b505050565b6060600480546102aa906111f6565b600033816108a88286610920565b9050838110156109085760405162461bcd60e51b815260206004820152602560248201527f45524332303a2064656372656173656420616c6c6f77616e63652062656c6f77604482015264207a65726f60d81b606482015260840161039c565b6109158286868403610986565b506001949350505050565b6001600160a01b03918216600090815260016020908152604080832093909416825291909152205490565b61088683836001600160a01b038216156109655785610968565b60005b6001600160a01b0386161561097d5785610980565b60005b85610aaa565b6001600160a01b0383166109e85760405162461bcd60e51b8152602060048201526024808201527f45524332303a20617070726f76652066726f6d20746865207a65726f206164646044820152637265737360e01b606482015260840161039c565b6001600160a01b038216610a495760405162461bcd60e51b815260206004820152602260248201527f45524332303a20617070726f766520746f20746865207a65726f206164647265604482015261737360f01b606482015260840161039c565b6001600160a01b0383811660008181526001602090815260408083209487168084529482529182902085905590518481527f8c5be1e5ebec7d5bd14f71427d1e84f3dd0314c0f7b2291e5b200ac8c7c3b925910160405180910390a3505050565b610adc604051806040016040528060118152602001705570646174696e672062616c616e63657360781b815250610c3a565b816001600160a01b0316836001600160a01b031614158015610afe5750600081115b15610c33576001600160a01b038316610b5357610b446040518060400160405280601081526020016f4d696e74696e6720256420746f20257360801b8152508284610c80565b610b4e8282610cc7565b610c33565b6001600160a01b038216610be757610b96604051806040016040528060128152602001714275726e696e672025642066726f6d20257360701b8152508285610c80565b6001600160a01b0383166000908152602081905260408120548210610bd3576001600160a01b038416600090815260208190526040902054610bd5565b815b9050610be18482610d86565b50610c33565b610c286040518060400160405280601d81526020017f5472616e7366657272696e672025642066726f6d20257320746f202573000000815250828585610eb8565b610c33838383610f01565b5050505050565b610c7d81604051602401610c4e919061110c565b60408051601f198184030181529190526020810180516001600160e01b031663104c13eb60e21b1790526110a5565b50565b610886838383604051602401610c98939291906112cc565b60408051601f198184030181529190526020810180516001600160e01b031663e3849f7960e01b1790526110a5565b6001600160a01b038216610d1d5760405162461bcd60e51b815260206004820152601f60248201527f45524332303a206d696e7420746f20746865207a65726f206164647265737300604482015260640161039c565b8060026000828254610d2f919061125f565b90915550506001600160a01b038216600081815260208181526040808320805486019055518481527fddf252ad1be2c89b69c2b068fc378daa952ba7f163c4a11628f55a4df523b3ef910160405180910390a35050565b6001600160a01b038216610de65760405162461bcd60e51b815260206004820152602160248201527f45524332303a206275726e2066726f6d20746865207a65726f206164647265736044820152607360f81b606482015260840161039c565b6001600160a01b03821660009081526020819052604090205481811015610e5a5760405162461bcd60e51b815260206004820152602260248201527f45524332303a206275726e20616d6f756e7420657863656564732062616c616e604482015261636560f01b606482015260840161039c565b6001600160a01b0383166000818152602081815260408083208686039055600280548790039055518581529192917fddf252ad1be2c89b69c2b068fc378daa952ba7f163c4a11628f55a4df523b3ef910160405180910390a3505050565b61082c84848484604051602401610ed294939291906112ff565b60408051601f198184030181529190526020810180516001600160e01b031663eac8928160e01b1790526110a5565b6001600160a01b038316610f655760405162461bcd60e51b815260206004820152602560248201527f45524332303a207472616e736665722066726f6d20746865207a65726f206164604482015264647265737360d81b606482015260840161039c565b6001600160a01b038216610fc75760405162461bcd60e51b815260206004820152602360248201527f45524332303a207472616e7366657220746f20746865207a65726f206164647260448201526265737360e81b606482015260840161039c565b6001600160a01b0383166000908152602081905260409020548181101561103f5760405162461bcd60e51b815260206004820152602660248201527f45524332303a207472616e7366657220616d6f756e7420657863656564732062604482015265616c616e636560d01b606482015260840161039c565b6001600160a01b03848116600081815260208181526040808320878703905593871680835291849020805487019055925185815290927fddf252ad1be2c89b69c2b068fc378daa952ba7f163c4a11628f55a4df523b3ef910160405180910390a361082c565b80516a636f6e736f6c652e6c6f67602083016000808483855afa5050505050565b6000815180845260005b818110156110ec576020818501810151868301820152016110d0565b506000602082860101526020601f19601f83011685010191505092915050565b60208152600061111f60208301846110c6565b9392505050565b80356001600160a01b038116811461113d57600080fd5b919050565b6000806040838503121561115557600080fd5b61115e83611126565b946020939093013593505050565b6000806040838503121561117f57600080fd5b61118883611126565b915061119660208401611126565b90509250929050565b6000806000606084860312156111b457600080fd5b6111bd84611126565b92506111cb60208501611126565b9150604084013590509250925092565b6000602082840312156111ed57600080fd5b61111f82611126565b600181811c9082168061120a57607f821691505b60208210810361122a57634e487b7160e01b600052602260045260246000fd5b50919050565b60006020828403121561124257600080fd5b5051919050565b634e487b7160e01b600052601160045260246000fd5b808201808211156105d5576105d5611249565b60208082526027908201527f43686f6f7365206c6f77657220616d6f756e742e2053636f72652043617020526040820152666561636865642160c81b606082015260800190565b818103818111156105d5576105d5611249565b6060815260006112df60608301866110c6565b6020830194909452506001600160a01b0391909116604090910152919050565b60808152600061131260808301876110c6565b6020830195909552506001600160a01b039283166040820152911660609091015291905056fea26469706673582212207b3064331b725637d863a3569fb540717b1f36ff004a80c6bcf2428f28acfacd64736f6c63430008140033",
    "linkReferences": {}
  },
  "methodIdentifiers": {
    "allowance(address,address)": "dd62ed3e",
    "approve(address,uint256)": "095ea7b3",
    "balanceOf(address)": "70a08231",
    "decimals()": "313ce567",
    "decreaseAllowance(address,uint256)": "a457c2d7",
    "increaseAllowance(address,uint256)": "39509351",
    "name()": "06fdde03",
    "symbol()": "95d89b41",
    "token()": "fc0c546a",
    "totalSupply()": "18160ddd",
    "transfer(address,uint256)": "a9059cbb",
    "transferFrom(address,address,uint256)": "23b872dd",
    "updateBalances(address,address,uint256)": "7a1f1aa9",
    "vouch(address,uint256)": "0f6c5572",
    "vouchFrom(address,address,uint256)": "3d4d83d2",
    "vouched(address,address)": "14ea0a87"
  },
  "id": 32
}