{
  "abi": [
    {
      "inputs": [
        {
          "internalType": "string",
          "name": "name",
          "type": "string"
        },
        {
          "internalType": "string",
          "name": "symbol",
          "type": "string"
        },
        {
          "internalType": "uint256",
          "name": "maxPluginsPerAccount",
          "type": "uint256"
        },
        {
          "internalType": "uint256",
          "name": "pluginCallGasLimit",
          "type": "uint256"
        }
      ],
      "stateMutability": "nonpayable",
      "type": "constructor"
    },
    {
      "inputs": [],
      "name": "IndexOutOfBounds",
      "type": "error"
    },
    {
      "inputs": [],
      "name": "InvalidPluginAddress",
      "type": "error"
    },
    {
      "inputs": [],
      "name": "InvalidTokenInPlugin",
      "type": "error"
    },
    {
      "inputs": [],
      "name": "OutputArrayTooSmall",
      "type": "error"
    },
    {
      "inputs": [],
      "name": "PluginAlreadyAdded",
      "type": "error"
    },
    {
      "inputs": [],
      "name": "PluginNotFound",
      "type": "error"
    },
    {
      "inputs": [],
      "name": "PluginsLimitReachedForAccount",
      "type": "error"
    },
    {
      "inputs": [],
      "name": "PopFromEmptyArray",
      "type": "error"
    },
    {
      "inputs": [],
      "name": "ReentrantCall",
      "type": "error"
    },
    {
      "inputs": [],
      "name": "ZeroPluginsLimit",
      "type": "error"
    },
    {
      "anonymous": false,
      "inputs": [
        {
          "indexed": true,
          "internalType": "address",
          "name": "owner",
          "type": "address"
        },
        {
          "indexed": true,
          "internalType": "address",
          "name": "spender",
          "type": "address"
        },
        {
          "indexed": false,
          "internalType": "uint256",
          "name": "value",
          "type": "uint256"
        }
      ],
      "name": "Approval",
      "type": "event"
    },
    {
      "anonymous": false,
      "inputs": [
        {
          "indexed": false,
          "internalType": "address",
          "name": "account",
          "type": "address"
        },
        {
          "indexed": false,
          "internalType": "address",
          "name": "plugin",
          "type": "address"
        }
      ],
      "name": "PluginAdded",
      "type": "event"
    },
    {
      "anonymous": false,
      "inputs": [
        {
          "indexed": false,
          "internalType": "address",
          "name": "account",
          "type": "address"
        },
        {
          "indexed": false,
          "internalType": "address",
          "name": "plugin",
          "type": "address"
        }
      ],
      "name": "PluginRemoved",
      "type": "event"
    },
    {
      "anonymous": false,
      "inputs": [
        {
          "indexed": true,
          "internalType": "address",
          "name": "from",
          "type": "address"
        },
        {
          "indexed": true,
          "internalType": "address",
          "name": "to",
          "type": "address"
        },
        {
          "indexed": false,
          "internalType": "uint256",
          "name": "value",
          "type": "uint256"
        }
      ],
      "name": "Transfer",
      "type": "event"
    },
    {
      "inputs": [
        {
          "internalType": "address",
          "name": "plugin",
          "type": "address"
        }
      ],
      "name": "addPlugin",
      "outputs": [],
      "stateMutability": "nonpayable",
      "type": "function"
    },
    {
      "inputs": [
        {
          "internalType": "address",
          "name": "owner",
          "type": "address"
        },
        {
          "internalType": "address",
          "name": "spender",
          "type": "address"
        }
      ],
      "name": "allowance",
      "outputs": [
        {
          "internalType": "uint256",
          "name": "",
          "type": "uint256"
        }
      ],
      "stateMutability": "view",
      "type": "function"
    },
    {
      "inputs": [
        {
          "internalType": "address",
          "name": "spender",
          "type": "address"
        },
        {
          "internalType": "uint256",
          "name": "amount",
          "type": "uint256"
        }
      ],
      "name": "approve",
      "outputs": [
        {
          "internalType": "bool",
          "name": "",
          "type": "bool"
        }
      ],
      "stateMutability": "nonpayable",
      "type": "function"
    },
    {
      "inputs": [
        {
          "internalType": "address",
          "name": "account",
          "type": "address"
        }
      ],
      "name": "balanceOf",
      "outputs": [
        {
          "internalType": "uint256",
          "name": "",
          "type": "uint256"
        }
      ],
      "stateMutability": "view",
      "type": "function"
    },
    {
      "inputs": [
        {
          "internalType": "address",
          "name": "account",
          "type": "address"
        },
        {
          "internalType": "uint256",
          "name": "amount",
          "type": "uint256"
        }
      ],
      "name": "burn",
      "outputs": [],
      "stateMutability": "nonpayable",
      "type": "function"
    },
    {
      "inputs": [],
      "name": "decimals",
      "outputs": [
        {
          "internalType": "uint8",
          "name": "",
          "type": "uint8"
        }
      ],
      "stateMutability": "view",
      "type": "function"
    },
    {
      "inputs": [
        {
          "internalType": "address",
          "name": "spender",
          "type": "address"
        },
        {
          "internalType": "uint256",
          "name": "subtractedValue",
          "type": "uint256"
        }
      ],
      "name": "decreaseAllowance",
      "outputs": [
        {
          "internalType": "bool",
          "name": "",
          "type": "bool"
        }
      ],
      "stateMutability": "nonpayable",
      "type": "function"
    },
    {
      "inputs": [
        {
          "internalType": "address",
          "name": "account",
          "type": "address"
        },
        {
          "internalType": "address",
          "name": "plugin",
          "type": "address"
        }
      ],
      "name": "hasPlugin",
      "outputs": [
        {
          "internalType": "bool",
          "name": "",
          "type": "bool"
        }
      ],
      "stateMutability": "view",
      "type": "function"
    },
    {
      "inputs": [
        {
          "internalType": "address",
          "name": "spender",
          "type": "address"
        },
        {
          "internalType": "uint256",
          "name": "addedValue",
          "type": "uint256"
        }
      ],
      "name": "increaseAllowance",
      "outputs": [
        {
          "internalType": "bool",
          "name": "",
          "type": "bool"
        }
      ],
      "stateMutability": "nonpayable",
      "type": "function"
    },
    {
      "inputs": [],
      "name": "maxPluginsPerAccount",
      "outputs": [
        {
          "internalType": "uint256",
          "name": "",
          "type": "uint256"
        }
      ],
      "stateMutability": "view",
      "type": "function"
    },
    {
      "inputs": [
        {
          "internalType": "address",
          "name": "account",
          "type": "address"
        },
        {
          "internalType": "uint256",
          "name": "amount",
          "type": "uint256"
        }
      ],
      "name": "mint",
      "outputs": [],
      "stateMutability": "nonpayable",
      "type": "function"
    },
    {
      "inputs": [],
      "name": "name",
      "outputs": [
        {
          "internalType": "string",
          "name": "",
          "type": "string"
        }
      ],
      "stateMutability": "view",
      "type": "function"
    },
    {
      "inputs": [
        {
          "internalType": "address",
          "name": "account",
          "type": "address"
        },
        {
          "internalType": "uint256",
          "name": "index",
          "type": "uint256"
        }
      ],
      "name": "pluginAt",
      "outputs": [
        {
          "internalType": "address",
          "name": "",
          "type": "address"
        }
      ],
      "stateMutability": "view",
      "type": "function"
    },
    {
      "inputs": [
        {
          "internalType": "address",
          "name": "plugin",
          "type": "address"
        },
        {
          "internalType": "address",
          "name": "account",
          "type": "address"
        }
      ],
      "name": "pluginBalanceOf",
      "outputs": [
        {
          "internalType": "uint256",
          "name": "",
          "type": "uint256"
        }
      ],
      "stateMutability": "view",
      "type": "function"
    },
    {
      "inputs": [],
      "name": "pluginCallGasLimit",
      "outputs": [
        {
          "internalType": "uint256",
          "name": "",
          "type": "uint256"
        }
      ],
      "stateMutability": "view",
      "type": "function"
    },
    {
      "inputs": [
        {
          "internalType": "address",
          "name": "account",
          "type": "address"
        }
      ],
      "name": "plugins",
      "outputs": [
        {
          "internalType": "address[]",
          "name": "",
          "type": "address[]"
        }
      ],
      "stateMutability": "view",
      "type": "function"
    },
    {
      "inputs": [
        {
          "internalType": "address",
          "name": "account",
          "type": "address"
        }
      ],
      "name": "pluginsCount",
      "outputs": [
        {
          "internalType": "uint256",
          "name": "",
          "type": "uint256"
        }
      ],
      "stateMutability": "view",
      "type": "function"
    },
    {
      "inputs": [],
      "name": "removeAllPlugins",
      "outputs": [],
      "stateMutability": "nonpayable",
      "type": "function"
    },
    {
      "inputs": [
        {
          "internalType": "address",
          "name": "plugin",
          "type": "address"
        }
      ],
      "name": "removePlugin",
      "outputs": [],
      "stateMutability": "nonpayable",
      "type": "function"
    },
    {
      "inputs": [],
      "name": "symbol",
      "outputs": [
        {
          "internalType": "string",
          "name": "",
          "type": "string"
        }
      ],
      "stateMutability": "view",
      "type": "function"
    },
    {
      "inputs": [],
      "name": "totalSupply",
      "outputs": [
        {
          "internalType": "uint256",
          "name": "",
          "type": "uint256"
        }
      ],
      "stateMutability": "view",
      "type": "function"
    },
    {
      "inputs": [
        {
          "internalType": "address",
          "name": "to",
          "type": "address"
        },
        {
          "internalType": "uint256",
          "name": "amount",
          "type": "uint256"
        }
      ],
      "name": "transfer",
      "outputs": [
        {
          "internalType": "bool",
          "name": "",
          "type": "bool"
        }
      ],
      "stateMutability": "nonpayable",
      "type": "function"
    },
    {
      "inputs": [
        {
          "internalType": "address",
          "name": "from",
          "type": "address"
        },
        {
          "internalType": "address",
          "name": "to",
          "type": "address"
        },
        {
          "internalType": "uint256",
          "name": "amount",
          "type": "uint256"
        }
      ],
      "name": "transferFrom",
      "outputs": [
        {
          "internalType": "bool",
          "name": "",
          "type": "bool"
        }
      ],
      "stateMutability": "nonpayable",
      "type": "function"
    }
  ],
  "bytecode": {
    "object": "0x60c06040523480156200001157600080fd5b5060405162001b1138038062001b11833981016040819052620000349162000158565b81818585600362000046838262000261565b50600462000055828262000261565b505050816000036200007a5760405163cdaf747b60e01b815260040160405180910390fd5b60809190915260a05250506001600555506200032d9050565b634e487b7160e01b600052604160045260246000fd5b600082601f830112620000bb57600080fd5b81516001600160401b0380821115620000d857620000d862000093565b604051601f8301601f19908116603f0116810190828211818310171562000103576200010362000093565b816040528381526020925086838588010111156200012057600080fd5b600091505b8382101562000144578582018301518183018401529082019062000125565b600093810190920192909252949350505050565b600080600080608085870312156200016f57600080fd5b84516001600160401b03808211156200018757600080fd5b6200019588838901620000a9565b95506020870151915080821115620001ac57600080fd5b50620001bb87828801620000a9565b604087015160609097015195989097509350505050565b600181811c90821680620001e757607f821691505b6020821081036200020857634e487b7160e01b600052602260045260246000fd5b50919050565b601f8211156200025c57600081815260208120601f850160051c81016020861015620002375750805b601f850160051c820191505b81811015620002585782815560010162000243565b5050505b505050565b81516001600160401b038111156200027d576200027d62000093565b62000295816200028e8454620001d2565b846200020e565b602080601f831160018114620002cd5760008415620002b45750858301515b600019600386901b1c1916600185901b17855562000258565b600085815260208120601f198616915b82811015620002fe57888601518255948401946001909101908401620002dd565b50858210156200031d5787850151600019600388901b60f8161c191681555b5050505050600190811b01905550565b60805160a0516117b062000361600039600081816102e801526113280152600081816101d50152610f2f01526117b06000f3fe608060405234801561001057600080fd5b506004361061014d5760003560e01c806370a08231116100c3578063a9059cbb1161007c578063a9059cbb146102d0578063b2be2d58146102e3578063c12556351461030a578063d8867fc81461031d578063dd62ed3e14610330578063ed6edc821461034357600080fd5b806370a08231146102745780638b822d881461028757806395d89b411461028f5780639dc29fac14610297578063a457c2d7146102aa578063a4d95b64146102bd57600080fd5b806323b872dd1161011557806323b872dd146101f7578063313ce5671461020a578063395093511461021957806340c10f191461022c5780634b12e64314610241578063617281341461026157600080fd5b806306fdde0314610152578063095ea7b31461017057806318160ddd146101935780631945f729146101a5578063236d8835146101d0575b600080fd5b61015a610356565b6040516101679190611569565b60405180910390f35b61018361017e3660046115cc565b6103e8565b6040519015158152602001610167565b6002545b604051908152602001610167565b6101b86101b33660046115cc565b610402565b6040516001600160a01b039091168152602001610167565b6101977f000000000000000000000000000000000000000000000000000000000000000081565b6101836102053660046115f8565b61042b565b60405160128152602001610167565b6101836102273660046115cc565b61044f565b61023f61023a3660046115cc565b610471565b005b61025461024f366004611639565b61047f565b6040516101679190611656565b61019761026f366004611639565b6104a3565b610197610282366004611639565b6104c4565b61023f610513565b61015a61051e565b61023f6102a53660046115cc565b61052d565b6101836102b83660046115cc565b610537565b61023f6102cb366004611639565b6105b7565b6101836102de3660046115cc565b6105c4565b6101977f000000000000000000000000000000000000000000000000000000000000000081565b6101976103183660046116a3565b6105d2565b61023f61032b366004611639565b61063a565b61019761033e3660046116a3565b610644565b6101836103513660046116a3565b61066f565b606060038054610365906116dc565b80601f0160208091040260200160405190810160405280929190818152602001828054610391906116dc565b80156103de5780601f106103b3576101008083540402835291602001916103de565b820191906000526020600020905b8154815290600101906020018083116103c157829003601f168201915b5050505050905090565b6000336103f68185856106a2565b60019150505b92915050565b6001600160a01b038216600090815260066020526040812061042490836107c6565b9392505050565b6000336104398582856107da565b610444858585610854565b506001949350505050565b6000336103f68185856104628383610644565b61046c9190611710565b6106a2565b61047b82826109fe565b5050565b6001600160a01b03811660009081526006602052604090206060906103fc90610ac5565b6001600160a01b03811660009081526006602052604081206103fc90610b32565b600060056104d3815460021490565b156104f1576040516306fda65d60e31b815260040160405180910390fd5b6001600160a01b03831660009081526020819052604090205491505b50919050565b61051c33610b49565b565b606060048054610365906116dc565b61047b8282610c3c565b600033816105458286610644565b9050838110156105aa5760405162461bcd60e51b815260206004820152602560248201527f45524332303a2064656372656173656420616c6c6f77616e63652062656c6f77604482015264207a65726f60d81b60648201526084015b60405180910390fd5b61044482868684036106a2565b6105c13382610d7a565b50565b6000336103f6818585610854565b600060056105e1815460021490565b156105ff576040516306fda65d60e31b815260040160405180910390fd5b610609838561066f565b1561062e576001600160a01b0383166000908152602081905260409020549150610633565b600091505b5092915050565b6105c13382610e1c565b6001600160a01b03918216600090815260016020908152604080832093909416825291909152205490565b6001600160a01b038281166000908152600660209081526040808320938516835260019093019052908120541515610424565b6001600160a01b0383166107045760405162461bcd60e51b8152602060048201526024808201527f45524332303a20617070726f76652066726f6d20746865207a65726f206164646044820152637265737360e01b60648201526084016105a1565b6001600160a01b0382166107655760405162461bcd60e51b815260206004820152602260248201527f45524332303a20617070726f766520746f20746865207a65726f206164647265604482015261737360f01b60648201526084016105a1565b6001600160a01b0383811660008181526001602090815260408083209487168084529482529182902085905590518481527f8c5be1e5ebec7d5bd14f71427d1e84f3dd0314c0f7b2291e5b200ac8c7c3b925910160405180910390a3505050565b600081815260208390526040812054610424565b60006107e68484610644565b9050600019811461084e57818110156108415760405162461bcd60e51b815260206004820152601d60248201527f45524332303a20696e73756666696369656e7420616c6c6f77616e636500000060448201526064016105a1565b61084e84848484036106a2565b50505050565b6001600160a01b0383166108b85760405162461bcd60e51b815260206004820152602560248201527f45524332303a207472616e736665722066726f6d20746865207a65726f206164604482015264647265737360d81b60648201526084016105a1565b6001600160a01b03821661091a5760405162461bcd60e51b815260206004820152602360248201527f45524332303a207472616e7366657220746f20746865207a65726f206164647260448201526265737360e81b60648201526084016105a1565b6001600160a01b038316600090815260208190526040902054818110156109925760405162461bcd60e51b815260206004820152602660248201527f45524332303a207472616e7366657220616d6f756e7420657863656564732062604482015265616c616e636560d01b60648201526084016105a1565b6001600160a01b03848116600081815260208181526040808320878703905593871680835291849020805487019055925185815290927fddf252ad1be2c89b69c2b068fc378daa952ba7f163c4a11628f55a4df523b3ef910160405180910390a361084e848484610fda565b6001600160a01b038216610a545760405162461bcd60e51b815260206004820152601f60248201527f45524332303a206d696e7420746f20746865207a65726f20616464726573730060448201526064016105a1565b8060026000828254610a669190611710565b90915550506001600160a01b038216600081815260208181526040808320805486019055518481527fddf252ad1be2c89b69c2b068fc378daa952ba7f163c4a11628f55a4df523b3ef910160405180910390a361047b60008383610fda565b60008080526020829052604090205460609060a081901c67ffffffffffffffff811115610af457610af4611731565b604051908082528060200260200182016040528015610b1d578160200160208202803683370190505b509150610b2b838383611194565b5050919050565b60008080526020829052604081205460a01c6103fc565b6001600160a01b0381166000908152600660205260408120610b6a90610ac5565b90506000610b77836104c4565b82519091505b801561084e576000836001830381518110610b9a57610b9a611747565b60200260200101519050610bdb8160066000886001600160a01b03166001600160a01b0316815260200190815260200160002061124a90919063ffffffff16565b50604080516001600160a01b038088168252831660208201527f550ef13f654f6fc7054e7c556d2647cb8838befbfa68640bb3050fc458ad4735910160405180910390a18215610c3257610c328186600086611302565b5060001901610b7d565b6001600160a01b038216610c9c5760405162461bcd60e51b815260206004820152602160248201527f45524332303a206275726e2066726f6d20746865207a65726f206164647265736044820152607360f81b60648201526084016105a1565b6001600160a01b03821660009081526020819052604090205481811015610d105760405162461bcd60e51b815260206004820152602260248201527f45524332303a206275726e20616d6f756e7420657863656564732062616c616e604482015261636560f01b60648201526084016105a1565b6001600160a01b0383166000818152602081815260408083208686039055600280548790039055518581529192917fddf252ad1be2c89b69c2b068fc378daa952ba7f163c4a11628f55a4df523b3ef910160405180910390a3610d7583600084610fda565b505050565b6001600160a01b0382166000908152600660205260409020610d9c908261124a565b610db95760405163108a506d60e01b815260040160405180910390fd5b604080516001600160a01b038085168252831660208201527f550ef13f654f6fc7054e7c556d2647cb8838befbfa68640bb3050fc458ad4735910160405180910390a16000610e07836104c4565b90508015610d7557610d758284600084611302565b6001600160a01b038116610e435760405163131ba80f60e21b815260040160405180910390fd5b306001600160a01b0316816001600160a01b031663fc0c546a6040518163ffffffff1660e01b8152600401602060405180830381865afa158015610e8b573d6000803e3d6000fd5b505050506040513d601f19601f82011682018060405250810190610eaf919061175d565b6001600160a01b031614610ed657604051630b281f9960e31b815260040160405180910390fd5b6001600160a01b0382166000908152600660205260409020610ef89082611379565b610f1557604051637e7191eb60e11b815260040160405180910390fd5b6001600160a01b03821660009081526006602052604090207f000000000000000000000000000000000000000000000000000000000000000090610f5890610b32565b1115610f77576040516314237bc560e11b815260040160405180910390fd5b604080516001600160a01b038085168252831660208201527f68aafb7a848a8e6e0e8fe992de5812474789ddec166ce06be4de83b3aaa2864e910160405180910390a16000610fc5836104c4565b90508015610d7557610d758260008584611302565b6005610fe5816113d0565b6000821180156110075750826001600160a01b0316846001600160a01b031614155b1561118b576001600160a01b038416600090815260066020526040812061102d90610ac5565b6001600160a01b03851660009081526006602052604081209192509061105290610ac5565b825181519192509060005b8281101561112b57600085828151811061107957611079611747565b6020026020010151905060005b8381101561110d578581815181106110a0576110a0611747565b60200260200101516001600160a01b0316826001600160a01b031603611105576110cc828c8c8c611302565b60008682815181106110e0576110e0611747565b60200260200101906001600160a01b031690816001600160a01b03168152505061110d565b600101611086565b83810361112157611121828c60008c611302565b505060010161105d565b5060005b8181101561118557600084828151811061114b5761114b611747565b6020026020010151905060006001600160a01b0316816001600160a01b03161461117c5761117c8160008b8b611302565b5060010161112f565b50505050505b6001815561084e565b815160609060a083901c908111156111bf5760405163f9a99b2560e01b815260040160405180910390fd5b80156112415782846000815181106111d9576111d9611747565b6001600160a01b039092166020928302919091019091015260015b8181101561123f57600081815260208790526040902054855186908390811061121f5761121f611747565b6001600160a01b03909216602092830291909101909101526001016111f4565b505b50919392505050565b6001600160a01b03811660009081526001830160205260408120548082036112765760009150506103fc565b60008080526020859052604090205460a01c8110156112d9576000808052602085905260408082205460a01c60001901825281205490506112bc856000198401836113f9565b6001600160a01b0316600090815260018501602052604090208190555b6112e284611478565b50506001600160a01b031660009081526001918201602052604081205590565b604051637a1f1aa960e01b808252600482018590526024820184905260448201839052907f0000000000000000000000000000000000000000000000000000000000000000905a60008060648460008c88f161136f57826040603f830204101561136f573d6000833e3d82fd5b5050505050505050565b6001600160a01b0381166000908152600183016020526040812054156113a1575060006103fc565b6113ab83836114eb565b6001600160a01b03929092166000908152600193840160205260409020919091555090565b8054600119016113f3576040516306fda65d60e31b815260040160405180910390fd5b60029055565b60008080526020849052604090205460a01c80831061142b57604051634e23d03560e01b815260040160405180910390fd5b8260000361145857600080805260208590526040902060a082901b6001600160a01b03841617905561084e565b60008381526020859052604090206001600160a01b038316905550505050565b6000808052602082905260408120549060a082901c908190036114ae5760405163035157cf60e11b815260040160405180910390fd5b60001981016000908152602084905260408120556001811115610d755760008080526020849052604090206001600160a01b031983019055505050565b60008080526020839052604081205460a081901c8083036115345760008080526020869052604090206001600160a81b03600160a01b6001600160a01b0387160116905561155e565b600080805260208690526040808220600160a01b8501905582825290206001600160a01b03851690555b600101949350505050565b600060208083528351808285015260005b818110156115965785810183015185820160400152820161157a565b506000604082860101526040601f19601f8301168501019250505092915050565b6001600160a01b03811681146105c157600080fd5b600080604083850312156115df57600080fd5b82356115ea816115b7565b946020939093013593505050565b60008060006060848603121561160d57600080fd5b8335611618816115b7565b92506020840135611628816115b7565b929592945050506040919091013590565b60006020828403121561164b57600080fd5b8135610424816115b7565b6020808252825182820181905260009190848201906040850190845b818110156116975783516001600160a01b031683529284019291840191600101611672565b50909695505050505050565b600080604083850312156116b657600080fd5b82356116c1816115b7565b915060208301356116d1816115b7565b809150509250929050565b600181811c908216806116f057607f821691505b60208210810361050d57634e487b7160e01b600052602260045260246000fd5b808201808211156103fc57634e487b7160e01b600052601160045260246000fd5b634e487b7160e01b600052604160045260246000fd5b634e487b7160e01b600052603260045260246000fd5b60006020828403121561176f57600080fd5b8151610424816115b756fea2646970667358221220527e33b9ae2800670e81a91cb2875d702d087a75ec1325f396f9c169576fb3e164736f6c63430008140033",
    "linkReferences": {}
  },
  "methodIdentifiers": {
    "addPlugin(address)": "d8867fc8",
    "allowance(address,address)": "dd62ed3e",
    "approve(address,uint256)": "095ea7b3",
    "balanceOf(address)": "70a08231",
    "burn(address,uint256)": "9dc29fac",
    "decimals()": "313ce567",
    "decreaseAllowance(address,uint256)": "a457c2d7",
    "hasPlugin(address,address)": "ed6edc82",
    "increaseAllowance(address,uint256)": "39509351",
    "maxPluginsPerAccount()": "236d8835",
    "mint(address,uint256)": "40c10f19",
    "name()": "06fdde03",
    "pluginAt(address,uint256)": "1945f729",
    "pluginBalanceOf(address,address)": "c1255635",
    "pluginCallGasLimit()": "b2be2d58",
    "plugins(address)": "4b12e643",
    "pluginsCount(address)": "61728134",
    "removeAllPlugins()": "8b822d88",
    "removePlugin(address)": "a4d95b64",
    "symbol()": "95d89b41",
    "totalSupply()": "18160ddd",
    "transfer(address,uint256)": "a9059cbb",
    "transferFrom(address,address,uint256)": "23b872dd"
  },
  "id": 33
}